:020000040800F2
:10000000983E00205D030008B31C00087D1B00081B
:10001000B11C0008A9140008694100080000000094
:10002000000000000000000000000000290200089D
:10003000F119000800000000D5020008490300087B
:1000400077030008770300087703000877030008A8
:100050007703000877030008770300087703000898
:100060007703000877030008770300087703000888
:100070007703000877030008770300087703000878
:100080007703000877030008770300087703000868
:100090007703000877030008770300087703000858
:1000A0007703000877030008770300087703000848
:1000B000C12C0008A92D0008952E00087703000820
:1000C0007703000877030008770300087703000828
:1000D00077030008013700085D370008C1370008C2
:1000E0007703000877030008770300087703000808
:1000F00077030008770300087703000877030008F8
:1001000077030008770300087703000877030008E7
:100110000D360008893600087703000877030008C9
:1001200077030008770300087703000877030008C7
:1001300077030008770300087703000877030008B7
:1001400077030008770300087703000877030008A7
:1001500077030008770300087703000825380008B4
:100160007703000877030008770300087703000887
:100170007703000877030008770300087703000877
:100180007703000877030008770300087703000867
:100190007703000877030008770300087703000857
:1001A000000000000000000077030008DFF80CD01A
:1001B00000F002FD00480047F9530008983E002077
:1001C00080F309887047EFF309807047684680F331
:1001D000098804480078C00714BF0220032080F378
:1001E00014887047FC620008DFF818C0EFF305833D
:1001F0001B0618BF6047EFF31483DB0708BF604797
:1002000000DF704721580008DFF818C0EFF30583BE
:100210001B0618BF6047EFF31483DB0708BF604776
:1002200000DF7047E5590008EFF30980816911F894
:10023000021CC9BB10B590E80F10E047BDE81040A4
:10024000EFF3098C204B93E80600914229D081B14D
:100250000CB41EF0100F06BF2CED108A03230123EF
:1002600081F826302CE9F00FC1F82CC005F018FEFB
:100270000CBC1A60D2F82CC0BCE8F00F92F8263003
:1002800013F0020F1ABFBCEC108A6FF0120E6FF061
:10029000020E8CF3098813F0010F08BF704792F823
:1002A0002500CCF80000704710B5084A126891424A
:1002B00009D8074C54F8214090E80F10A047EFF3FD
:1002C000098C8CE80F0010BD18010020B00F000849
:1002D000B00F000810B505F0D5FCBDE81040194B73
:1002E00093E80600914208BF70470CB4EFF3098C05
:1002F0001EF0100F06BF2CED108A0223002381F898
:1003000026302CE9F00FC1F82CC005F0C9FD0CBC5B
:100310001A60D2F82CC0BCE8F00F92F8263013F027
:10032000020F1ABFBCEC108A6FF0120E6FF0020EB3
:100330008CF3098813F0010F1CBF92F82530CCF81C
:10034000003070471801002010B505F09DFEC4E78D
:1003500010B505F0B1F905F097FEBEE706488047F5
:1003600006480047FEE7FEE7FEE7FEE7FEE7FEE79A
:10037000FEE7FEE7FEE7FEE7A92A0008AD01000858
:100380000FB400B58DB010A909900B9000914FF0FB
:10039000FF300A9000200C90054806900548079011
:1003A0006A4609A80F9900F0F3FA0DB05DF814FB46
:1003B000AD090008CB0900082DE9FF5F1D464FF08D
:1003C000FF3BD5E9014691465F464FF00008A96919
:1003D0007F1C01988847296A824688470028F6D101
:1003E000BAF1FF3F0CD024F4C064002E19DD600682
:1003F00014D5BAF12B0F09D0BAF12D0F0ED103E0AD
:10040000584604B0BDE8F09F44F48064A9697F1C9D
:1004100001988847761E8246002E02DDBAF1300F21
:1004200003D0B9F1000F26D032E0A969761E44F45A
:1004300000747F1C019888478246002E05DDBAF1C2
:10044000780F06D0BAF1580F03D0B9F1000F10D0D1
:100450001EE0B9F1000F02D0B9F1100F18D1A9694F
:10046000761E24F400747F1C019888478246102071
:1004700002E0082000E00A20814609E008FB0908A4
:10048000A969761E44F400747F1C0198884782464F
:10049000002E05DD4946504600F065FA0028EDDAE9
:1004A000E96901988847A00502D46FF00100A8E728
:1004B000E00725D1600613D5600502D5C8F100001C
:1004C00000E0404629680A1D2A600968220501D516
:1004D000087015E0220701D5088011E008600FE0E0
:1004E0002868011D29600068210502D580F8008078
:1004F00006E0210702D5A0F8008001E0C0F80080E6
:1005000038467EE72DE9FE4F804681EA0300C00FA2
:100510000C46009021F0004123F00045B8EB0200AA
:10052000A94105D24046214690461C460B4602464C
:1005300023F00040104347D0270DC7F30A00C3F350
:100540000A510290401A019040286BDAC3F313005D
:1005500040F4801B0098924620B10023D2EB030A9E
:1005600063EB0B0B01985946C0F14002504600F076
:10057000C9F906460D4650465946019A00F0E1F980
:1005800010EB08006141002487EA115284EAE77306
:100590001A4340D0009A62B3019A012A4FEA0752E7
:1005A00015DC001B61EB02014FF0004202EA07522A
:1005B000CDE90042001C41F5801132462B4600F087
:1005C0005BFA03B0BDE8F08F40462146F9E7001B17
:1005D00061EB0201001C41F5801300185B412018FB
:1005E000A2F5001747EB030140EAD570B6196D413B
:1005F00011E06D084FEA360645EAC0754FEA07522A
:10060000001B61EB0201001C41F5801149084FEA13
:1006100030000019514132462B4603B0BDE8F04F7F
:1006200000F01BBA0098012240000023D0EB020228
:1006300063EBE073009821464FEAE074B8EB0000EA
:1006400061EB0401E9E783F000435BE781F00041DF
:1006500058E72DE9FE4F81EA030404F0004421F03D
:10066000004100944FF0000B23F0004350EA0104D6
:100670005ED052EA03045BD0C3F30A54C1F30A55B7
:100680002C44A4F2F3340194A0FB0254C1F31301EF
:1006900041F48011C3F3130343F4801301FB0244BC
:1006A00000FB034E840A970A44EA815447EA8357C1
:1006B000A4FB076802958D0A05FB07854FEA932C7A
:1006C00004FB0C542705029D4FEA065847EA1637EB
:1006D000B5EB08056EEB070C870E920E47EA811703
:1006E00042EA8312A7FB0201B6EB0B0164EB0004A4
:1006F0002B0D43EA0C335E1844EB1C50DA4651468E
:10070000E7FB0201C5F313044FEA0B3343EA14532A
:100710004FEA0432019C43EA0603A4F10C0402945C
:10072000009CCDE900B400F0A7F903B0BDE8F08F5C
:1007300000200146F9E72DE9F04D81EA030404F0B9
:10074000004B21F0004514464FF0000A23F0004111
:1007500050EA050220D054EA01021DD0C5F30A5721
:100760000246C5F31303C1F31300C1F30A5640F464
:10077000801543F48013A7EB0608101BD64608F239
:10078000FD3873EB050002D308F1010801E092186F
:100790005B41B8F1000F03DA00200146BDE8F08D9F
:1007A00000204FF48011064684460EE0171B73EBC1
:1007B000050705D3121B63EB050306434CEA010C46
:1007C00049084FEA300092185B4150EA0107EDD129
:1007D00052EA030012D082EA040083EA05010843CA
:1007E00005D0101BAB4106D20122002306E00022F7
:1007F0004FF0004302E06FF0010253101AEB0600C5
:100800004CEB085110EB0A0041EB0B01BDE8F04D39
:1008100000F023B90EB5C10F80EAE0700844CA07A2
:10082000002140F233438DE80E000A460B4600F0EB
:1008300023F903B000BD70B5C1F30A5201F00045C1
:100840000024C1F3130140F2FF3341F480119A42B6
:1008500001DA002070BD40F233439A42A2F23342E3
:1008600003DC524200F05DF800E090402C43F1D0F0
:10087000404270BD00F0004230F000400AD0C10D8F
:1008800001F56071C0F3160042EA0151C208400749
:1008900011437047002001467047000030B5041E28
:1008A00071F1000404DB4FF00044404264EB0101AD
:1008B000141E73F1000405DB1C464FF00043524246
:1008C00063EB04038B4208BF824230BD01F000435A
:1008D00030B421F0004150EA010206D00A0DA2F521
:1008E0006072C1F31301002A02DC30BC00207047A3
:1008F000440F44EAC104C100E01830BC00EBC25010
:1009000000F074B8202A04DB203A00FA02F100203B
:1009100070479140C2F1200320FA03F3194390403D
:100920007047202A04DB203A21FA02F000217047A8
:1009300021FA02F3D040C2F1200291400843194647
:100940007047202A06DBCB17203A41FA02F043EA2F
:10095000E07306E041FA02F3D040C2F12002914078
:100960000843194670473A2800D2303820F0200258
:10097000412A01D3A2F13700884201D34FF0FF3062
:1009800070470000026811441378016018467047F0
:10099000D16004495161044911620021116111467D
:1009A00000F022B985090008DD0B0008426842B159
:1009B000016811F8013B23B1521EC0E9001218462C
:1009C00070470121C160881E704742685AB1C368F0
:1009D000016843B983688B4205D0491E521CC0E9A7
:1009E0000012002070474FF0FF3070470029A8BF69
:1009F0007047401C490008BF20F00100704710B448
:100A0000B0FA80FC00FA0CF050EA010404BF10BCFC
:100A1000704749B1CCF1200421FA04F411FA0CF129
:100A200018BF012121430843A3EB0C01CB1D4FEA62
:100A300000614FEA102042BF002010BC704700EB5D
:100A4000C35010440029A4BF10BC7047401C49008B
:100A500008BF20F0010010BC704710B5141E73F1E0
:100A6000000408DA401C41F1000192185B411A436E
:100A700001D120F0010010BD2DE9F04D92469B46BA
:100A800011B1B1FA81F202E0B0FA80F22032904660
:100A9000FFF738FF04460F4640EA0A0041EA0B011F
:100AA00053465A46084313D0114653EA010019D061
:100AB000C8F140025046FFF734FF05460E46504647
:100AC00059464246FFF71EFF084305D0012004E0C7
:100AD00020463946BDE8F08D0020054346EAE07621
:100AE0002C4337430A986305E40AA0EB0800002270
:100AF000FD0A44EA47540A3002D500200146E9E7DE
:100B0000010510196941DDE9084500196941BDE891
:100B1000F04DA2E72DE9F04D00231A461B1A8A4139
:100B200003DB00200146BDE8F08DC1F30A52C1F39A
:100B3000130141F480154FF0000BD10702D10018CA
:100B40006D41521E0027044640F2FF11384601EB6A
:100B5000620A3E468046024600204FF48011FFF7AD
:100B6000E0FEC2197141BB1846EB0100B4EB030C67
:100B700075EB000C04D3E41A65EB000517460E462E
:100B8000241908F101006D4180463428E3DDF9198C
:100B900046EB0600091BA84103D24FF0FF32134673
:100BA00001E0002213461BEB070046EB0A51BDE8AB
:100BB000F04DFFF752BF0000064C074D06E0E0681D
:100BC00040F0010394E8070098471034AC42F6D394
:100BD000FFF7F0FAC8640008E8640008C0B24FF4F8
:100BE000F05100F0A5B900002DE9F34F8BB04FF0A4
:100BF000000801F10C000C464FF0010B46460DF1C8
:100C0000080A01906269012101989047051E2DD0C4
:100C1000252D2CD0216A8847C0B162690121019835
:100C20009047216A88470028F7D1411E62690198E0
:100C3000904700E0761CA1690B988847216A884795
:100C40000028F7D1E1690B988847DBE7A1690B9889
:100C500088470746A84201D1761CD3E7E1690B9883
:100C600088477F1C02D1B8F1000F6FD046E1002702
:100C700062693D463946019890472A2804D1626945
:100C80000121019890470125DFF8849262690121D2
:100C900001989047A0F130010A290AD24F45E5DCBE
:100CA00007EB870100EB4107303FDFD445F010052B
:100CB000ECE7E90601D46FF000476C280AD04C2815
:100CC00014D0682815D06A280DD074281CD07A2832
:100CD0001AD01DE062690121019890476C2802D06A
:100CE00045F0040514E045F002050DE045F020054F
:100CF0000AE06269012101989047682802D045F016
:100D0000080505E045F400656269012101989047F6
:100D1000C4E9015765283DD019DC58287AD00CDC8D
:100D2000452837D004DC252826D0412831D131E0B0
:100D300046282FD047282CD12CE05B2877D061287B
:100D400028D063287CD0642823D15AE0D0E06F28D3
:100D500048D008DC66281DD067281BD0692821D020
:100D60006E2816D127E0702845D0732868D07528E2
:100D700047D078280DD14DE0A1690B9888470546EA
:100D800025283FF469AFE1690B9888476D1C3FF453
:100D90006AAFB3E023466A466FF001000B99AFF3E8
:100DA00000809EE045F040006060A80723464FF0B9
:100DB000000236D43EE0E8077FF447AF2068011D0B
:100DC00021600068290501D506701BE7290701D5B8
:100DD000068017E7A90703D5F117C0E9006111E7FD
:100DE00006600FE745F040006060A80723464FF01B
:100DF000080216D41EE040F60E0125EA01006060EC
:100E000016E045F040006060A80723464FF00A0254
:100E100007D40FE045F040006060A80708D52346DE
:100E200010226FF001000B99AFF3008059E007E04A
:100E3000234610226FF001000B99FFF7BDFA50E036
:100E40004FF000094F464B46632802D05B2806D07E
:100E500040E0E80601D40120A06001273AE0626981
:100E60000121019890475E2805D14FF00109626980
:100E7000494601989047216939B900210A465346ED
:100E800043F82120491C0829FADBB0B3216969B96C
:100E9000C11700EBD16253110AEB830122F01F024C
:100EA000821A01200B68904003430B6062690121A4
:100EB000019890475D28E8D1B9F1000F09D00020D2
:100EC000514651F82020D24341F82020401C0828E8
:100ED000F7DB02AB224600976FF001000B99AFF3EE
:100EE000008000280CDA401C08D1BBF1000F05D0AF
:100EF0004FF0FF300DB0BDE8F08FFFE74046F9E757
:100F0000E90701D108F1010806444FF0000B79E62A
:100F1000CCCCCC0C0EB540F2334102910021CDE98E
:100F200000110A460B46FFF7A7FD03B000BD000005
:100F30007F2801D9002208E0064A02EB5002C007D0
:100F4000127800D1120902F00F02012090400840EF
:100F5000704700008864000870B58C1810F8015BB9
:100F600015F0070301D110F8013B2A1106D110F842
:100F7000012B03E010F8016B01F8016B5B1EF9D146
:100F80002B0705D40023521E0DD401F8013BFAE7CC
:100F900010F8013BCB1A921C03E013F8015B01F837
:100FA000015B521EF9D5A142D8D3002070BD0000CC
:100FB00000000000C943016070470029816814BF28
:100FC00041F0010121F00101816070470849D1F829
:100FD0000423084B1A40D0E9003C43EA0C03D0E953
:100FE00002C04CEA000018431043C1F804037047E4
:100FF00000200140E030FCFFC06C80B27047024628
:10100000002012680A4218BF0120704710B44268DD
:1010100091F804C022F4807222F040720B6842EA18
:101020000C221A43426082680C4B4C791A40D1E979
:1010300003C343EA0C03D1F808C04CEA440C43EA6A
:101040000C031A438260C26A097D22F47002491EB1
:10105000C9B242EA0151C16210BC7047FDF7FFC03E
:1010600030B4072409290DD9C568A1F10A0C0CEB8D
:101070004C0C04FA0CF425EA040403FA0CF32343A1
:10108000C3600AE0056901EB410C04FA0CF425EA9F
:10109000040403FA0CF3234303611F23072A0CD231
:1010A000D0F834C0521E02EB820293402CEA0303B4
:1010B00091401943416330BC70470D2A0CD2D0F8DF
:1010C00030C0D21F02EB820293402CEA030391400E
:1010D0001943016330BC7047D0F82CC00D3A02EBC5
:1010E000820293402CEA030391401943C16230BC51
:1010F0007047816841F08041816070470549002850
:10110000D1F8040314BF40F4000020F40000C1F83B
:1011100004037047002001402DE9F041BDEEC00AF4
:10112000194C4FF0080C10EE103A84F802C04FF042
:10113000070C03EB830384F803C05B002071637129
:10114000180AA071E171080A20726272100AA07276
:10115000122020704C2060700020261D0B4F0CF8D0
:10116000060005463846615D02F004FFE178625DE5
:10117000885D10448855681CC5B2E078401DA842BF
:10118000F0D8BDE8F0810000113400200048004094
:101190002DED028B0023364A36493748DFF8DCC094
:1011A00000DF374C0025606065700220DFF8D4C096
:1011B00000DF25616420DFF8CCC000DF2069012555
:1011C000A061657003F072F800F0A2FA9FED2E8A1C
:1011D0004FF47A710020B0EE480A04F093F80A2028
:1011E00003F0E6FF4FF47A71B0EE480A012004F0F4
:1011F00089F80A2003F0DCFF244825490570E8023D
:101200000880244D244F4FF03108244E00F024FD77
:101210002070286810F0200F1BD11F4804F04EF9F1
:10122000B8B91F4B87F800801A1F1EA11A48FFF794
:10123000A7F8A068B0F5487FBCBFE168B1F5487F6A
:1012400007DAC1F1F001A0F5A070C4E9020102F0D3
:101250002BF900F013FF01F0E3F800F05DFF3070B0
:1012600000F07AFF1420DFF81CC000DFCEE700009A
:101270003801002001000400AD1200080D610008D3
:10128000000000208D5900080000000040000020F0
:101290001A0C02401008024048070020C400002039
:1012A0000C0000203125642C25640000194C2DED24
:1012B000028B607830B9C820DFF85CC000DF60784E
:1012C0000028F8D01549A069A1FB00104009A061D1
:1012D00004BF9FED130A84ED050A64214843206191
:1012E0009FED108A002520692561E06100EE100A5B
:1012F0006420DFF824C0F8EE400A94ED060AB8EE48
:10130000401A80EE810A38EE400A84ED050A00DFBB
:10131000E9E70000000000208D5900081F85EB510F
:10132000000000000000C8422DE9F0430E460446CC
:101330008BB00121022001F0CDFA0121102001F033
:10134000C9FA0121084601F0E9FA4B4F002C7DD083
:101350004A48DFF82C81012200680821B0FBF4F034
:10136000401E85B2404600F0E4FB012209214046C0
:1013700000F0DFFBDFF80C9101220021484600F06D
:10138000D8FB01220B21404600F0D3FB012211467D
:10139000484600F0CEFB01220D21404600F0C9FB7B
:1013A000032102208DF81C008DF81D1000248DF8FB
:1013B0001E4006918DF81F0006A9484600F06CFB00
:1013C0004FF42C50069006A9404600F065FBADF89E
:1013D0002040ADF828400995ADF822408DF82A400C
:1013E00008A9384601F018FF6020ADF80000012080
:1013F000ADF8020006FB05F042F21071B0FBF1F00F
:1014000002900420ADF80C40ADF80400ADF8104097
:10141000ADF80E40ADF812406946384601F025FEA1
:101420000821384601F055FE6946384601F057FE5E
:101430000821384601F098FE6946384601F09EFEC4
:101440000821384601F0E0FE012100E00DE03846B9
:1014500001F02AFD0121384601F032FD0121384614
:1014600001F037FD0BB0BDE8F0830021384601F0F4
:1014700027FD0BB0BDE8F08300000140EC00002028
:10148000001002400004024070B50C460546AA2137
:1014900002F070FD2146284602F06CFD2846BDE8AA
:1014A0007040002102F066BDFEE700000000000071
:1014B00070B5894C89482DED0C8BB0EE409A94EDB7
:1014C0000A0A30EEC08A90ED0E0A18EE100AB8EE45
:1014D000C00A70EE018AFFF7CDF99FED81AB53ECA6
:1014E0001A2BFFF728F99FED80BB53EC1B2BFFF75E
:1014F000B0F841EC100B03F0F3F851EC100BFFF7D0
:10150000E5F9E06418EE100AFFF7B4F953EC1A2B72
:10151000FFF711F953EC1B2BFFF79BF841EC100B75
:1015200003F042F951EC100BFFF7D0F9206518EEEB
:10153000100AFFF79FF953EC1A2BFFF7FCF853EC56
:101540001B2BFFF786F841EC100B03F0C9F8B0EE47
:1015500040CAF0EE60CA19EE100AFFF78BF953EC9F
:101560001C2BFFF776F8FFF7B1F9606518EE100A4B
:10157000FFF780F953EC1A2BFFF7DDF853EC1B2B28
:10158000FFF767F841EC100B03F00EF9B0EE40AA3C
:10159000F0EE60AA19EE100AFFF76CF953EC1A2B63
:1015A000FFF757F8FFF792F90546A065606DFFF762
:1015B00061F99FED4F1B53EC112BFFF74AF841ECFB
:1015C0001A0B18EE900AFFF755F99FED4B9B53EC61
:1015D000192BFFF73EF89FED4ACB53EC1C2BFFF77E
:1015E00038F853EC1A2BFEF78DFFFFF76FF9E06127
:1015F0002846FFF73FF941EC1A0B9FED43DBB0EEB5
:101600004D0AF0EE6D0A03F033F953EC1A2B51EC4E
:10161000100BFFF71EF853EC1D2BFFF78CF841EC75
:101620001B0B606DFFF726F953EC192BFFF711F830
:1016300041EC1A0B18EE900AFFF71CF953EC192B2A
:10164000FFF707F853EC1C2BFFF703F853EC1A2BAA
:10165000FEF7F9FF53EC1B2BFEF7F5FFFFF736F90A
:101660002062A06DFFF706F941EC1A0BB0EE4D0AAF
:10167000F0EE6D0A03F0FCF853EC1A2B51EC100B52
:10168000FEF7E7FF53EC1D2BFFF755F841EC1A0B63
:10169000606DFFF7EFF853EC192BFEF7DAFF41EC22
:1016A0001B0B18EE900AFFF7E5F853EC192BFEF729
:1016B000D0FF53EC1C2BFEF7CCFF53EC1B2BFEF79B
:1016C000C2FF53EC1A2BFEF71DFFFFF7FFF8606215
:1016D000BDEC0C8B70BD0000400000209433002056
:1016E00000000000008066404AD8124DFB210940EE
:1016F000555555555555E53F555555555555D53FB6
:101700000000000000002E40000000000000084023
:1017100030B40023084A09490948DFF828C000DF2F
:10172000094C0023094A206009490A48DFF814C01F
:1017300000DF606030BC7047E02A00200700040032
:10174000AD3200080D61000830000020E02E0020BE
:101750000600040071330008064A904234BF064870
:10176000064811F0005F064A01EA020114BFC16099
:1017700081607047106402400060024000640240D3
:101780007D0F7D0F0029016814BF41F0010121F098
:1017900001010160704700002DE9F003016821F0AC
:1017A000010101600021016041608160C16001614F
:1017B00021214161434A3D244349904202BF8C604C
:1017C000BDE8F0037047414A4FF47465904202BF90
:1017D0008D60BDE8F00370473D4A4FF474189042A5
:1017E00002BFC1F80880BDE8F0037047394A4FF0E6
:1017F0007466904202BF8E60BDE8F0037047364BBE
:10180000364A984202BFCA60BDE8F0037047DFF86D
:10181000D0C0344B604502BFCB60BDE8F0037047D9
:10182000314FDFF8C8C0B84202BFC1F80CC0BDE8F4
:10183000F0037047DFF8B8904FF03D57484502BFBE
:10184000CF60BDE8F0037047DFF8A8902A4948450B
:1018500002BF0C60BDE8F0037047284CA04202BFF5
:101860000D60BDE8F0037047254CA04202BFC1F8EF
:101870000080BDE8F0037047224CA04202BF0E601A
:10188000BDE8F0037047204C2049A04202BF0A6027
:10189000BDE8F00370471E4A904202BF0B60BDE8EE
:1018A000F00370471B4A904202BFC1F800C0BDE878
:1018B000F0037047184A904208BF0F60BDE8F0037C
:1018C0007047000010600240006002402860024043
:1018D0004060024058600240706002403D000020BD
:1018E00088600240400F0020A060024000003D20C0
:1018F000B86002401064024008640240286402405C
:101900004064024058640240706402400C6402402B
:1019100088640240A0640240B8640240014600208E
:10192000096811F0010F18BF01207047406880B2AC
:10193000704711F0800F01F01E0306D072B1D0F88D
:1019400014C04CF0800CC0F814C0802908BF704748
:10195000002A1CBF0168194307D008E0426922F041
:1019600080024261802908BF704701689943016085
:101970007047000010B402681B4BD1F80CC01A402D
:101980000B6843EA0C03D1E905C44CEA040C43EAB2
:101990000C03D1F81CC043EA0C03D1F820C043EA81
:1019A0000C03D1F824C043EA0C03D1F828C043EA61
:1019B0000C03D1F834C043EA0C03D1F838C043EA31
:1019C0000C031A4302604269D1E90B3C22F0070282
:1019D00043EA0C031A4342610A6942604A68826022
:1019E0008968C16010BC70473F801CF0416070473F
:1019F0007047000010B5134C1348D4ED040A94ED61
:101A0000070A00F099FAD4ED050A94ED080A0F4888
:101A100000F092FAD4ED060A94ED090A0C4800F0A1
:101A20008BFA0948816B42F22830421A09498A63CD
:101A3000064A926B821A4A63054A926B801AC863FF
:101A400010BD000040000020E03200201C330020C8
:101A500058330020000001402DE9F04182B0884653
:101A6000DDE908671D461446012100F033FF02201E
:101A70008DF805008DF804508DF8066000948DF8FF
:101A800007706946404600F007F8A1B2404600F0F2
:101A900061F802B0BDE8F0812DE9F00100220125D6
:101AA0005FF00306D1F800C005FA02F30CEA030C5C
:101AB0009C4537D107684FEA420C06FA0CF4A7435D
:101AC00007600F79D0F8008007FA0CF747EA08079B
:101AD00007600F79012F18BF022F17D1876827EAF7
:101AE000040787604F79D0F8088007FA0CF747EAB7
:101AF00008078760476827EA0303436043688F79D4
:101B000007FA02F7BFB243EA07034360C36823EA58
:101B10000403C360CB7903FA0CF3D0F80CC043EA9A
:101B20000C03C36002F10102102ABBD3BDE8F0012F
:101B300070474B07DB0E9A40C90800EB8100016A31
:101B40004FF00F0C0CFA03F399430162016A114341
:101B500001627047418370470548D0ED020A05488D
:101B6000C0ED0D0A90ED0C0A034800F059B90000D1
:101B7000EC3300204000002094330020114906A3DC
:101B800000201A5C8A800A8812F0400FFBD0401CAB
:101B9000C0B22A28F5D3FEE70D0A456E746572209F
:101BA000486172644661756C745F48616E646C650F
:101BB000722C2053797374656D2048616C742E0DFE
:101BC0000A0000000010014070B582B01F4E0225CF
:101BD00000240123042231461020CDE90045FFF7FF
:101BE0003BFF0123082231461020CDE90045FFF7D5
:101BF00033FF174E01235A0231460820CDE9004534
:101C0000FFF72AFF01239A0231460820CDE900455B
:101C1000FFF722FF0123DA0231460820CDE9004513
:101C2000FFF71AFF0B4E0125002340223146022008
:101C3000CDE90045FFF710FF002340223146022086
:101C4000CDE90045FFF708FF02B070BD001002406B
:101C5000000C0240000402401349144800220B7893
:101C600033B1D0F81832002B02BF0A700120704740
:101C7000D0F818C20123BCF1010F08BF0B7091F816
:101C800001C0BCF1000F07D0D0F81CC2BCF1000F9E
:101C900002BF4A7002207047D0F81C02012808BF1A
:101CA0004B70002070470000B800002000804042C8
:101CB000FEE7704770B5174C102565832021312051
:101CC00000F02EF8FF21E22000F02AF80522124948
:101CD000302003F083FC052210492A2003F07EFC0B
:101CE0000121212000F01CF80121222000F018F829
:101CF0001A21242000F014F80021252000F010F80B
:101D00000F21262000F00CF80F21202000F008F809
:101D1000258370BD00000240BA000020BF000020F3
:101D20002DE9F0410D46194910260E80184F044642
:101D30000221384600F069FE0028F9D021463C46D1
:101D4000384600F06BFE0121204600F05EFE0028C0
:101D5000F9D0204600F060FEC7B20221204600F014
:101D600054FE0028F9D02946204600F057FE0121F4
:101D7000204600F04AFE0028F9D0204600F04CFE34
:101D8000044806803846BDE8F08100001A08024089
:101D9000003001401808024010B4C27801780F24C6
:101DA0004FF0010C0AB3174A126801F1E02102F466
:101DB000E062C2F5E062C2F30722C2F10403D4403C
:101DC00042789A40837823401A43120181F8002414
:101DD000007800F01F010CFA01F14009800000F1C9
:101DE000E020C0F8001110BC704701F01F000CFA91
:101DF00000F04909890001F1E021C1F8800110BC1F
:101E0000704700000CED00E0034940F0FD7040F029
:101E100080600860704700000CED00E000000000EA
:101E200010B504462DED048B80ED060A30EE600AF5
:101E3000C0ED070A3A4980ED080A10EE100A884200
:101E400004D810EE100A3749884203DDB1EE400A8B
:101E500084ED080A94ED0A0A94ED088A30EE080A27
:101E600084ED0A0AD4ED000A20EE881A84ED011AE6
:101E7000D4ED020A20EE800A84ED030AD4ED090AAB
:101E8000D4ED041A78EE600A60EEA11AC4ED051ACA
:101E9000D4ED0B0AB4EEE00AF1EE10FAC8BFB0EED2
:101EA000600A84ED030AF1EE600AB4EEE00AF1EE96
:101EB00010FAD8BFB0EE600A84ED030A31EE000AD2
:101EC00030EE210ABDEEC00A10EE100AA063216BAD
:101ED0008842C8BF08464942A0638842D8BF084626
:101EE000FEF798FC9FED101B53EC112BFEF7B1FB96
:101EF00041EC190B606BFEF78DFC9FED0D1B53EC55
:101F0000112BFEF7A6FB53EC192BFEF7FBFAFEF79D
:101F100092FCA06384ED098A6063BDEC048B10BD64
:101F2000000034C300003443333333333333D33FFF
:101F3000666666666666E63F10B504462DED048B60
:101F400030EE608A80ED060AC0ED070A80ED088A4F
:101F500090ED0A0A30EE080A80ED0A0AD0ED000A78
:101F600020EE881A80ED011AD0ED020A20EE800AD8
:101F700080ED030AD0ED090AD0ED041A78EE600A6C
:101F800060EEA11AC4ED051AD4ED0B0AB4EEE00A16
:101F9000F1EE10FAC8BFB0EE600A84ED030AF1EE6C
:101FA000600AB4EEE00AF1EE10FAD8BFB0EE600AB3
:101FB00084ED030A31EE000A30EE210ABDEEC00ABC
:101FC00010EE100AA063216B8842C8BF0846494240
:101FD000A0638842D8BF0846FEF71CFC9FED0E1B8D
:101FE00053EC112BFEF735FB41EC190B606BFEF740
:101FF00011FC9FED0B1B53EC112BFEF72AFB53EC4E
:10200000192BFEF77FFAFEF716FCA06384ED098A10
:102010006063BDEC048B10BD9A9999999999A93F79
:10202000666666666666EE3F80ED000A9FED0F0A03
:10203000002180ED010AC0ED020A80ED030A80ED67
:10204000041A80ED050A80ED060A80ED070A80ED8E
:10205000080A80ED090A80ED0A0ABDEEC20AC0ED49
:102060000B1A80ED0C0A4163816370470000000089
:102070000149085C70470000083400200248002134
:102080000160416001727047083400202DE9F84377
:1020900001248046ADF800401D4F00267E70ADF84B
:1020A0000040BDF80000B0F5807F3CBF194D4FF6F1
:1020B000FF7927D2BDF8000010EA080F14BFC5F859
:1020C0008442C5F88462C5F88C42052003F08AF882
:1020D000C5F88C62052003F085F8C5F88C42D5F868
:1020E000000220B17878BDF8001008437870BDF880
:1020F000000009EA4000ADF80000BDF80000B0F5AE
:10210000807FD7D3BDE8F843102003F06BB8000000
:1021100008340020000041420C480E4AB0F8031079
:102120000B4841800020012312F810C000F101008B
:10213000ACF1010C03FA0CFC1CEA010FC0B208BFA1
:1021400070471028F0D300207047000008340020AA
:10215000C6000020CA0000202DE9F04701202DED27
:10216000028BFFF785FFDFF830A24FF00008012651
:102170009FED8A8A8A4D8B4C4FF4B47942F228370E
:10218000412823D00120FFF773FF73281CBFBDEC4B
:10219000028BBDE8F08700F077FA00F009FB9AF8AF
:1021A0000000092879D00A2878D00B2877D00C288D
:1021B00008D19FED7D1AB0EE480AF0EE400AFFF715
:1021C00077F92670BDEC028BBDE8F0879AF8000025
:1021D000112824BFBDEC028BBDE8F087DFE800F0DA
:1021E0000A090909091C282D390A847D9D4050607F
:1021F0007000E7E798FBF9F009FB108000EE900A09
:10220000B0EE480AB0EE401AF8EEE00AFFF750F9D7
:102210006F63AF63EF63D5E7B0EE481ADFED630A93
:102220009FED630ABDEC028BBDE8F047FFF740B9B4
:10223000F0EE480AB0EE601A0FE0B0EE481ADFED9B
:102240005D0A9FED5B0ABDEC028BBDE8F047FFF72E
:102250002FB9B0EE481ADFED580A9FED550A62E03B
:1022600094ED0B0AF7EE000A322130EE200A01202D
:1022700084ED0B0ABDEC028BBDE8F04703F042B8D9
:1022800094ED0A0AF7EE000A322130EE200A00200F
:1022900084ED0A0A03F036F87CE047E062E057E09C
:1022A00094ED0B0AF7EE000A322130EE600A0120AD
:1022B00084ED0B0ABDEC028BBDE8F04703F022B8B9
:1022C00094ED0A0AF7EE000A322130EE600A00208F
:1022D00084ED0A0A03F016F85CE0B0EE480A9FEDC0
:1022E000371AF0EE400A1EE084ED0A8A84ED0B8A6C
:1022F0003221B0EE480A002003F004F80A20DFF88B
:10230000C0C000DF3221B0EE480A012002F0FAFF1F
:102310000A20DFF8ACC000DF3CE0B0EE480A9FEDD9
:10232000291AF0EE400AFFF7C3F833E098FBF9F002
:1023300009FB108000EE900AB0EE480AF8EEE00AC1
:10234000B0EE401AFFF7B4F86F63AF63EF6339E79D
:10235000B0EE480A9FED1C1AF0EE400AFFF7A8F80D
:1023600026702FE784ED0A8A84ED0B8A3221B0EEC5
:10237000480A002002F0C6FF0A20DFF844C000DF50
:102380003221B0EE480A012002F0BCFF0A20DFF83B
:1023900030C000DF267015E7C400002000000000F8
:1023A0000000014040000020000096430000B442BD
:1023B0000000FA440000874300003443000048C393
:1023C0008D59000800004843000096C330B583B023
:1023D00000240220CDE90040104D23460122294669
:1023E0000420FFF739FB0094012302222946042030
:1023F0000194FFF731FB0422009401232946104683
:102400000194FFF729FB00940123082229460420A8
:102410000194FFF721FB03B030BD0000000802402B
:102420002DE9F04182B000268DF800600124ADF85E
:1024300004402A4DC5F88862294F3878FFF726FEF8
:102440007878FFF723FE02208DF800009DF8000049
:1024500009283CBFDFF88C804FF6FF7739D200BFE8
:10246000ADF80440BDF80400B0F5807F25D200BF70
:10247000C5F88C42052002F0B5FEC5F88C62052037
:1024800002F0B0FEC5F88C42D5F8000250B19DF8BC
:102490000000BDF8041018F8000008439DF8001073
:1024A00008F80100BDF8040007EA4000ADF8040098
:1024B000BDF80400B0F5807FDAD3102002F092FE60
:1024C0009DF80000401C8DF800009DF800000928D0
:1024D000C6D3C5F8884202B0BDE8F0810000414291
:1024E000C60000200834002070B5654C0025C4F8F3
:1024F0008852102004F5227402F074FE0120FFF7C8
:10250000C5FD4220FFF7C2FD0020FFF7BFFD002000
:10251000FFF7BCFD0020FFF7B9FD01262660102063
:1025200002F060FE2560102002F05CFE0120FFF743
:10253000ADFD4220FFF7AAFD0020FFF7A7FD002018
:10254000FFF7A4FD0020FFF7A1FD2660102002F098
:1025500049FE2560102002F045FE0120FFF796FDA0
:102560004220FFF793FD0020FFF790FD0020FFF7CA
:102570008DFD0020FFF78AFD2660102002F032FE5C
:102580002560102002F02EFE0120FFF77FFD432082
:10259000FFF77CFD0020FFF779FD0120FFF776FDB6
:1025A0000020FFF773FD0020FFF770FD0020FFF70C
:1025B0006DFD0020FFF76AFD0020FFF767FD266034
:1025C000102002F00FFE25600120FFF75FFD442080
:1025D000FFF75CFD0020FFF759FD0120FFF756FDD6
:1025E000EE20FFF753FD0020FFF750FD0020FFF71E
:1025F0004DFD0020FFF74AFD0020FFF747FD266054
:10260000102002F0EFFD2560102002F0EBFD01200C
:10261000FFF73CFD4D20FFF739FD0020FFF736FDA9
:102620000020FFF733FD0120FFF730FD266010206A
:1026300002F0D8FD2560102002F0D4FD0120FFF744
:1026400025FD4320FFF722FD0020FFF71FFD00209E
:10265000FFF71CFD5A20FFF719FD5A20FFF716FD62
:102660005A20FFF713FD5A20FFF710FD5A20FFF7FD
:102670000DFD2660BDE87040102002F0B3BD0000E3
:10268000000041420000000070B53D4C07202DEDD8
:10269000048BFFF7EDFC05460820FFF7E9FC064632
:1026A000A5F17F00FEF7B6F841EC180BC6F18000EB
:1026B00084ED188BFEF7AEF841EC100B84ED1A0B8D
:1026C00053EC102BFDF7C5FF41EC190B53EC182B05
:1026D00051EC180BFDF7BDFF53EC192BFDF712FF62
:1026E00041EC100B02F0C4F884ED1C0B53EC102BE2
:1026F00094ED180B51EC100BFEF71DF841EC100B8C
:1027000001F042FE9FED201B51EC100B53EC112BFE
:10271000FDF79FFF9FED1E1B53EC112BFEF70BF8EF
:10272000FEF7D4F89FED1C0BA06353EC102B94ED37
:102730001A0B51EC100BFEF7B1F805D294ED0E0A0E
:10274000B1EE400A84ED0E0A9FED150B53EC102BF1
:1027500094ED1C0B51EC100BFDF77BFF41EC100BC3
:1027600084ED1C0BFEF7B2F8D4ED0E0A00EE100A51
:10277000BDEC048BBDE870409FED0B1AFEF798BED0
:1027800040000020000000000000000000806640C3
:102790004AD8124DFB210940000000000000000053
:1027A0000000000000003E400000000000000000AB
:1027B00010B53F4C05202DED048B94ED0F0ABDEEB6
:1027C000C00A84ED110A94ED100ABDEEC00A84ED32
:1027D000120AFFF74DFC00EE100A0620B8EE400A80
:1027E00084ED0F0AFFF744FC00EE100A9FED328BD8
:1027F0009FED339BB8EE400A84ED100AD4ED110A28
:1028000094ED0F0AF8EEE00AB4EE600AF1EE10FA69
:102810001FD0DFED2D0A30EE600A10EE100AFEF731
:1028200029F853EC182BFDF714FF53EC192BFDF787
:1028300010FFFEF74BF800EE100A642184ED0A0A3F
:10284000002002F05FFD0F20DFF880C000DF0120D4
:102850002070D4ED120A94ED100AF8EEE00AB4EEFE
:10286000600AF1EE10FA04BFBDEC048B10BDDFED81
:10287000180A30EEC00A10EE100AFDF7FBFF53EC09
:10288000182BFDF7E6FE53EC192BFDF7E2FEFEF7E1
:102890001DF800EE100A642184ED0B0A012002F0FD
:1028A00031FD0F20DFF824C000DFBDEC048B10BD2C
:1028B0004000002000000000000000000000803FF9
:1028C00000000000008056400000FE428D590008C4
:1028D00000000043044A0029116814BF084321EA9C
:1028E000000010607047000030380240044A0029A0
:1028F000116814BF084321EA00001060704700000F
:1029000040380240044A0029116814BF084321EAF4
:10291000000010607047000020380240044A00297F
:10292000116814BF084321EA0000106070470000DE
:1029300044380240044A0029116814BF084321EAC0
:10294000000010607047000024380240254A30B46F
:102950001168254B11F00C0106D0244C042908BF46
:10296000046002D008291ED0036011680F2303EA17
:1029700011111F4B595CD0F800C02CFA01F14160D5
:10298000D2F800C0072404EA9C2C13F80CC021FAEA
:102990000CFCC0F808C0126804EA52329A5CD140BC
:1029A000C16030BC70471349D1F800C0CCF38055EA
:1029B000D1F800C0002D0CF03F0C14BFB4FBFCF3A9
:1029C000B3FBFCF3D1F800C00968CCF3881C03FB0F
:1029D0000CF3C1F30141491C4900B3FBF1F1016063
:1029E000C3E70000083802400024F40040787D016D
:1029F00000010020043802400029018814BF41F082
:102A0000400121F0400101807047024600201289F8
:102A10000A4218BF01207047808970478181704742
:102A2000DFF86CC030B4DCF800001A4B10F00C0179
:102A3000194806D0194C042908BF046002D008299F
:102A40000CD00360DCF80010154AC1F30311515C8F
:102A5000026822FA01F1016030BC704711490A682E
:102A6000C2F380550A68002D02F03F0214BFB4FB88
:102A7000F2F2B3FBF2F20B680968C3F388135A430E
:102A8000C1F30141491C4900B2FBF1F10160D9E7F2
:102A9000083802400024F400EC00002040787D015A
:102AA000F000002004380240474882B0016841F439
:102AB000700101604548016841F00101016044492D
:102AC0004FF0000CC1F800C0026822F4102222F07E
:102AD00080720260031D3F4A1A60026822F480225D
:102AE00002600A1DC2F800C0CDF804C0CDF800C0D5
:102AF000026842F480320260026802F400320092FE
:102B0000019A521C0192009A1AB9019AB2F5A04F8B
:102B1000F2D1026812F4003F08BFCDF800C04CD0DB
:102B2000012200922C4AD2F800C04CF0805CC2F81E
:102B300000C02A4AD2F800C04CF4404CC2F800C091
:102B4000D1F800C0C1F800C0D1F800C04CF4004C6E
:102B5000C1F800C0D1F800C04CF4A05CC1F800C0BE
:102B6000DFF87CC0C3F800C0036843F080730360E3
:102B7000036813F0007FFBD0106840F480301060D1
:102B8000506810F4803FFBD0106840F400301060B3
:102B9000506810F4003FFBD0124A40F205701060FC
:102BA000086820F003000860086840F00200086030
:102BB000086800F00C000828FAD10B494FF00060BB
:102BC000086002B07047000088ED00E00038024065
:102BD00008380240103000244038024000700040A5
:102BE000195A4007003C024008ED00E070B5012191
:102BF00088B00846FFF77AFE01210846FFF76AFE13
:102C000001210220FFF766FE2B4D01220F212846ED
:102C1000FEF78FFF294E012203213046FEF789FF80
:102C20004FF40040009002208DF8040003208DF83E
:102C3000050001208DF8070000248DF80640694644
:102C40002846FEF729FF0820009069463046FEF727
:102C500023FF02A800F020FB4FF6FF700390ADF8B1
:102C60000840ADF81040ADF80A4002A9680300F032
:102C7000D3FA00231A460321680300F035F905A8AA
:102C800000F0E3F90A20ADF81C0005A9400700F0A8
:102C900049F90121880700F010F901221146900737
:102CA00000F0DBF90021680300F0B4FA0121880785
:102CB00000F006F908B070BD0000024000040240B8
:102CC0004FF08040018A018A21F0010101827047A2
:102CD00030B589B001210220FFF708FE0121022052
:102CE000FFF7F8FD2E4D022204212846FEF721FFB2
:102CF000022205212846FEF71CFF30200490022006
:102D00008DF8140003208DF8150000248DF817406D
:102D10008DF8164004A92846FEF7BEFE684600F06E
:102D2000BBFA4FF6FF701F4D0190ADF80040ADF8B3
:102D30000840ADF802406946284600F06DFA0023CD
:102D40001A460321284600F0CFF806A800F07DF9C6
:102D50000A20ADF8200006A9284600F0E3F801217A
:102D6000284600F0AAF801221146284600F075F91D
:102D70000021284600F04EFA0121284600F0A0F874
:102D80001D208DF80C008DF80D408DF80E400120AF
:102D90008DF80F0003A8FEF7FFFF09B030BD00005B
:102DA000000402400004004003480188018821F02B
:102DB00001010180704700001004004030B589B067
:102DC00001210420FFF792FD01210820FFF782FD79
:102DD0002E4D02220C212846FEF7ABFE02220D21C9
:102DE0002846FEF7A6FE4FF44050049002208DF8CE
:102DF000140003208DF8150000248DF817408DF87D
:102E0000164004A92846FEF747FE684600F044FA3B
:102E10004FF6FF701E4D0190ADF80040ADF8084030
:102E2000ADF802406946284600F0F6F900231A463C
:102E30000321284600F058F806A800F006F90A20F9
:102E4000ADF8200006A9284600F06CF801212846BC
:102E500000F033F801221146284600F0FEF8002168
:102E6000284600F0D7F90121284600F029F81E2055
:102E70008DF80C008DF80D408DF80E4001208DF876
:102E80000F0003A8FEF788FF09B030BD000C024018
:102E90000008004003480188018821F001010180F9
:102EA00070470000100800400029018814BF41F05D
:102EB000800121F0800101807047C9430182704781
:102EC0000029018814BF41F0010121F001010180B6
:102ED00070470029B0F8441014BF41F40041C1F319
:102EE0000E01A0F84410704730B40589B0F818C03E
:102EF000048C25F0070529432CF0030C2CF4407CAE
:102F000040F201154CEA050C4FF6FF7505EA031374
:102F100024F022041A4322430181A0F818C002843D
:102F200030BC704770B40D884C88B1F804C00B8970
:102F30004FF6FF7255B3042D44D0082D058C67D091
:102F400025F480550584868B058C26F4734602EAA9
:102F50000C2C4CEA060C02EA033343EA0C0302EAA7
:102F6000043425F4204C4CEA040C4CF4805C83833C
:102F7000A0F820C08979838B23F440638383838BFB
:102F800002EA01211943818370BC7047058C25F04A
:102F900001050584068B058C02EA031226F0F30670
:102FA00042EA0C02324325F00A03234343F00103B3
:102FB00002830384C988028B22F00C020283028BF5
:102FC000114322E0058C25F010050584068B058C45
:102FD00026F4734602EA0333334302EA0C2C4CEA2C
:102FE000030302EA041425F0A00C4CEA040C4CF094
:102FF000100C0383A0F820C08979038B23F440636D
:103000000383038B02EA01211943018370BC7047DB
:1030100025F480750584868B058C02EA042402EA77
:10302000031226F0F30642EA0C02324325F4206331
:10303000234343F4807382830384C988828B22F004
:103040000C028283828B11439DE700210180418025
:1030500001228280C18001817047002A828914BFC9
:10306000114322EA01018181704710B4028C22F0E1
:1030700001020284038C8288B0F818C00C882CF0FE
:10308000730C44EA0C0C8C8923F0020323434C8814
:103090002343A0F18044B4F580341CBFA0F18044E8
:1030A000B4F582340DD1CC8923F0080323438C88F6
:1030B00023F0040323430C8A22F4407222434C8AF7
:1030C00022438280A0F818C089684163038410BC41
:1030D0007047028B22F0080211430183704730B41D
:1030E000028C22F010020284038CB0F804C0028B20
:1030F0000D8822F4E6444FF6FF7202EA05252C43C0
:103100008D8923F0200302EA05152B434D8802EA3E
:1031100005152B43A0F18045B5F580351CBFA0F106
:103120008045B5F5823517D1CD8923F0800302EAB9
:1031300005152B438D8823F0400302EA05152B4328
:103140000D8A2CF4406C02EA850545EA0C0C4D8A88
:1031500002EA850242EA0C0CA0F804C004838968E4
:103160008163038430BC7047028B4FF6FF7322F4F7
:10317000006203EA012111430183704730B4028CDD
:1031800022F480720284028C8388B0F81CC00C8800
:103190002CF0730C44EA0C0422F4007C8D894FF669
:1031A000FF7202EA052545EA0C0C4D8802EA052566
:1031B00045EA0C0CA0F18045B5F580351CBFA0F1A7
:1031C0008045B5F5823517D1CD892CF4006C02EA23
:1031D000052545EA0C0C8D882CF4806C02EA052547
:1031E00045EA0C0C0D8A23F4405302EA05152B43E3
:1031F0004D8A02EA05121343838084838968C16380
:10320000A0F820C030BC7047828B22F00802114326
:10321000818370474162704710B402881C4BDFF80D
:1032200074C0984218BF604511D0B0F1804F1CBFE8
:10323000A0F18044B4F5806409D0A0F18044B4F5D5
:1032400000641CBFA0F18044B4F5406403D14C88F5
:1032500022F070022243A0F18044B4F580541CBFD8
:10326000A0F18044B4F5A05403D00C8922F440723C
:10327000224302804A68C2620A880285984212BFCD
:103280006045897A01864FF00101818210BC704748
:1032900000000140000401404FF0FF314160002177
:1032A0000180018141808172704700004FF08041B0
:1032B0002DED028B002048622349086023490860F5
:1032C0009FED248ADFED228AB1EE040AF0EE481A5F
:1032D000B0EE682AB0EE481AF0EE480A1E48FEF733
:1032E000A3FEB0EE682AF0EE481AB0EE481AF0EEEF
:1032F000480AB1EE040A1948FEF796FEB0EE682AB5
:10330000F0EE481AB0EE481AF0EE480AB1EE040AA0
:103310001348FEF789FEB3EE0E2AF0EE481AB0EE1F
:10332000481AF0EE480AB1EE040A0E48FEF77CFE99
:103330000A20DFF834C000DFDFF830C000DF00F023
:10334000CBFEFEF757FBF7E72404004024080040BB
:10335000009C0C4600000000E03200201C330020DE
:103360005833002094330020915A0008A95A0008CD
:10337000194E154C4FF400652DED028B16F1020726
:103380009FED138B01F0FAFF10EE100AFDF772FAB1
:1033900041EC100B53EC182B84ED020BFDF77EFA79
:1033A0000BD835804FF47A70DFF830C000DF3D80F5
:1033B0004FF47A70DFF824C000DF4FF47A70DFF842
:1033C0001CC000DFDEE7000030000020000000002D
:1033D000B81E85EB51B80440180C02408D59000806
:1033E00082B048210948FEF74FF800226946084894
:1033F000DFF820C000DF20B10820DFF81CC000DFAC
:10340000F3E70648009902F059F9EEE70050004052
:10341000202A0020BD5B00088D590008D033002011
:1034200082B048211748FEF72FF8174C174E184D59
:10343000184F4FF000084FF0500900226946164817
:10344000DFF858C000DF20B10820DFF854C000DFEB
:10345000F3E70E48009902F08BF92078012804BFA9
:1034600084F8008085F8009001D0287830B1287861
:10347000401E287096ED020A87ED000AFEF76CFBED
:10348000DBE70000004C004040000020EC3300204F
:103490002400002070000020802A0020BD5B00086E
:1034A0008D5900080000000070B5534C05462DED05
:1034B000068BD4ED0B8A9FED529BB7EE008A0F2945
:1034C00021DD0846FDF7A6F953EC192BFDF7C1F8ED
:1034D00038EE880A41EC1A0B10EE100AFDF7CAF913
:1034E00053EC1A2BFDF70EF8FDF7F0F900EE100A79
:1034F000502184ED0B0A012001F004FF0A20DFF8BF
:1035000008C100DF23E011F10F0F20DA0846FDF7B4
:1035100081F953EC192BFDF79CF838EEC80A41EC01
:103520001A0B10EE100AFDF7A5F953EC1A2BFCF755
:10353000E9FFFDF7CBF900EE100A502184ED0B0AEC
:10354000012001F0DFFE0A20DFF8BCC000DF012609
:103550000F2D23DD2846FDF75DF953EC192BFDF700
:1035600078F894ED0A0A41EC190B30EE080A10EED7
:10357000100AFDF77FF953EC192BFCF7C3FFFDF799
:10358000A5F900EE100A502184ED0A0A002001F08E
:10359000B9FE0A20DFF870C000DF28E015F10F0F38
:1035A000A4BFBDEC068B70BD2846FDF733F953EC84
:1035B000192BFDF74EF894ED0A0A41EC190B30EE89
:1035C000480A10EE100AFDF755F953EC192BFCF7D9
:1035D00099FFFDF77BF900EE100A502184ED0A0AED
:1035E000002001F08FFE0A20DFF81CC000DF2670EB
:1035F000BDEC068B70BD0000400000200000000004
:103600007B14AE47E17A743F8D59000870B5184DB0
:1036100040F22441284600F00EFC002808BF70BD8F
:103620000021144C2046FEF7ADF828881248008887
:103630002046FEF77BF9C0F18000104D0004000C1D
:10364000288007D00E4802F045FA18B1A91C0C4892
:1036500001F0CAFE0B492046FEF77EF88021204685
:10366000FEF7C4F92046BDE870400121FEF78AB894
:10367000004C004040600240044C004026380020CE
:10368000802A002000003D1070B5184D40F2244102
:10369000284600F0D0FB002808BF70BD0021144C64
:1036A0002046FEF76FF82888A8882046FEF73EF9E6
:1036B000C0F180000F4D0004000C288007D00E4898
:1036C00002F008FA18B1A91C0B4801F08DFE0B4955
:1036D0002046FEF741F880212046FEF787F9204674
:1036E000BDE870400121FEF74DB8000000500040D9
:1036F0001060024028390020202A00203D00801060
:1037000070B5124C40F22441204600F094FB002892
:1037100008BF70BD00210E4D2846FEF733F8208803
:10372000A0882846FEF702F90A49C0F18000088007
:1037300009492846FEF710F880212846FEF756F979
:103740002846BDE870400121FEF71CB8001001407A
:10375000886402401E340020400F002070B5134CD6
:1037600040F22441204600F066FB002808BF70BDEF
:1037700000210F4D2846FEF705F820880D480088E7
:103780002846FEF7D3F80C49C0F1800008800B49A9
:103790002846FDF7E1FF80212846FEF727F9284655
:1037A000BDE870400121FDF7EDBF0000004400407E
:1037B000886002400444004020350020400F002073
:1037C00070B5134C40F22441204600F034FB002831
:1037D00008BF70BD00210F4D2846FDF7D3FF20889C
:1037E0000D4800882846FEF7A1F80C49C0F180007A
:1037F00008800B492846FDF7AFFF80212846FEF7D9
:10380000F5F82846BDE870400121FDF7BBBF000078
:103810000048004028600240044800402236002052
:10382000400F001070B5134C40F22441204600F0C8
:1038300002FB002808BF70BD00210F4D2846FDF790
:10384000A1FF20880D4800882846FEF76FF80C4934
:10385000C0F1800008800B492846FDF77DFF8021DC
:103860002846FEF7C3F82846BDE870400121FDF761
:1038700089BF000000140140286402400414014084
:1038800024370020400F0010C943018070470029F1
:10389000818914BF41F4005121F4005181817047A6
:1038A000F0B587B004460020ADF80C00ADF80E006E
:1038B000ADF81000ADF814000C200291ADF8120024
:1038C0001D46164602A9204600F0F4FA012240F2F5
:1038D0002441204600F0D5FA01212046FFF7D7FF0A
:1038E00040212046FFF7D0FF194A1A481A491B4BBE
:1038F000DFF86CC0A4F18047B7F5883708BF2520F2
:1039000003D0944208BF262002D18DF8000012E0B7
:10391000844204BF27208DF8000007D08C4208BFE6
:103920004720F2D09C4208BF3420EED0644504BF4B
:1039300035208DF800008DF801608DF802500120CF
:103940008DF803006846FEF727FA07B0F0BD0000C7
:10395000004400400048004000140140004C00407A
:1039600000500040002A828A14BF114322EA01015C
:10397000818270472DE9F74F0D460446012190B032
:103980004805FEF7A7FF01218805FEF7A3FF6D4F4D
:10399000DFF8B481DFF8B491DFF8B4A1DFF8B4B197
:1039A000A4F180404FF00066B0F5883014D0A4F147
:1039B0008040B0F588401AD0A4F18040B0F5904026
:1039C00022D0A4F18040B0F58A302FD0A4F18040FD
:1039D000B0F5984037D023E03846FDF7DDFE384695
:1039E000FDF79CFF0028FAD15B48009609E04046AD
:1039F000FDF7D2FE4046FDF791FF0028FAD1574867
:103A00000096CDE9010535E04846FDF7C5FE48467C
:103A1000FDF784FF0028FAD151480096CDE9010551
:103A2000A4F18040B0F5A04018D023E05046FDF747
:103A3000B3FE5046FDF772FF0028FAD14FF0206028
:103A400000904848DDE75846FDF7A6FE5846FDF7CA
:103A500065FF0028FAD144480096D2E74348FDF7B5
:103A60009BFE4248FDF75AFF0028FAD140480096D5
:103A7000CDE90105002003901299CDE904104FF41F
:103A80008061CDE9061089010890CDE90901032183
:103A9000CDE90B010D900E90A4F18040B0F5883077
:103AA00014D0A4F18040B0F5884016D0A4F1804035
:103AB000B0F5904018D0A4F18040B0F58A302BD0FA
:103AC000A4F18040B0F5984031D015E06946384601
:103AD000FDF750FF0121384624E069464046FDF7D6
:103AE00049FF012140461DE069464846FDF742FF77
:103AF00001214846FDF746FEA4F18040B0F5A04004
:103B00001CBF13B0BDE8F08F6946184C2046FDF786
:103B100031FF0121204605E069465046FDF72AFFA6
:103B200001215046FDF72EFE13B0BDE8F08F694627
:103B30005846FDF71FFF01215846FDF723FE13B03D
:103B4000BDE8F08F8864024088600240286002402F
:103B500028640240406002400410014004440040D8
:103B60000448004004140140044C0040106002402E
:103B7000045000402DE9F04F0446012191B0480562
:103B8000FEF7A8FE01218805FEF7A4FE564D574F0B
:103B9000DFF85C81DFF85CA1DFF85C914FF0006634
:103BA000AC420FD1DFF854B15846FDF7F5FD584649
:103BB000FDF7B4FE0028FAD15148CDE90060514824
:103BC000029034E0BC420FD1DFF83CB15846FDF71B
:103BD000E3FD5846FDF7A2FE0028FAD14B48CDE997
:103BE00000604B48029022E044450FD15046FDF75B
:103BF000D3FD5046FDF792FE0028FAD14FF0206029
:103C00000090444801904448029010E04C450ED189
:103C1000DFF808B15846FDF7BFFD5846FDF77EFEB8
:103C20000028FAD13E48CDE900603E48029040208D
:103C3000039000268020CDE90406C000CDE90606E9
:103C400080010896CDE909600320CDE90B600D964F
:103C50000E96AC4205D169462848FDF78BFE4620FA
:103C600016E0BC4205D169462748FDF783FE0F20C8
:103C70000EE0444505D169465046FDF77BFE4520E0
:103C800006E04C4506D169462448FDF773FE2F2017
:103C90008DF83C008DF83D608DF83E6001208DF878
:103CA0003F000FA8FEF778F8AC4203D101221021A3
:103CB00012480AE0BC4203D101221021124804E05C
:103CC000444507D1012210215046FDF732FE11B0C4
:103CD000BDE8F08F4C451CBF11B0BDE8F08F01224C
:103CE00010210E48F1E7000000100140004800409C
:103CF00000140140A064024000500040B86402403B
:103D000004100140A03400207060024004480040CC
:103D1000A436002004140140A6370020B8600240F9
:103D200004500040AA39002010B5A0F18041B1F53F
:103D300088312ED0A0F18041B1F5884133D0A0F177
:103D40008041B1F5904139D0A0F18041B1F5984161
:103D50003FD0A0F18041B1F5A04145D0A0F1804114
:103D6000B1F58A314BD0A0F18041B1F5F04150D08E
:103D7000A0F18041B1F5F84118BF10BD0121C8077D
:103D8000FEF7C0FDBDE8104000214FF00040FEF7F7
:103D9000B9BD01211020FEF7CDFD0021BDE8104086
:103DA0001020FEF7C7BD01214804FEF7ABFDBDE8BA
:103DB000104000214FF40030FEF7A4BD012188041B
:103DC000FEF7A0FDBDE8104000214FF48020FEF773
:103DD00099BD0121C804FEF795FDBDE81040002102
:103DE0004FF40020FEF78EBD01210805FEF78AFD85
:103DF000BDE8104000214FF48010FEF783BD012183
:103E00002020FEF797FD0021BDE810402020FEF79E
:103E100091BD01218807FEF775FDBDE81040002126
:103E20004FF08040FEF76EBD0246002012880A4225
:103E300018BF0120704710B401F01F0201240023B5
:103E4000C1F3421C04FA02F2BCF1010F04BFB0F846
:103E50000CC00CEA020208D0BCF1020F0CBFB0F893
:103E600010C0B0F814C00CEA0202090A008804FA73
:103E700001F10840002A1CBF00280123184610BC8D
:103E80007047C1F3421301F01F014FF0010C0CFA0F
:103E900001F1012B08BF0C3003D0022B0CBF1030F6
:103EA0001430002A026814BF114322EA01010160A4
:103EB0007047000030B50446008A85B00D46C988B9
:103EC00020F4405008432082A089A9882A8920F440
:103ED000037011436A8920F4A05010430843A08165
:103EE000A08AA98920F440700843A0826846FEF7A2
:103EF0002DFDA4F18040B0F588301BBFA4F18040B7
:103F0000B0F58A3003980298A18911F4004F00EBB4
:103F1000C00101EB0010296814BF49008900B0FB03
:103F2000F1F0114A6FF0180CA2FB003149090901A8
:103F30000B0903FB0CF300EB8300A38913F4004F80
:103F40004FF0320314BF03EBC00003EB0010A2FBE1
:103F500000204FEA501014BF00F0070000F00F00DF
:103F60000843208105B030BD1F85EB51C1F3080126
:103F70008180704710B50446FFF7F8FF8021204686
:103F8000FFF752FF0028F9D010BD00002DE9F041E5
:103F90001F4C804682B016460F462046FFF7C4FEEF
:103FA00001210420FEF796FC0121C804FEF79EFCC7
:103FB000184D08220A212846FDF7BBFD08220B21D7
:103FC0002846FDF7B6FD4FF44060009002208DF8C2
:103FD00004008DF8050000208DF8060001208DF802
:103FE000070069462846FDF757FD33463A464146E5
:103FF0002046FFF755FC802207492046FFF7BAFC10
:10400000012240212046FFF7ADFC02B0BDE8F0815F
:10401000004C004000080240283800202DE9F04301
:10402000284C814683B0174688462046FFF77CFE21
:1040300001210420FEF74EFC01210820FEF74AFC76
:1040400001210805FEF752FC1F4D082202212846D7
:10405000FDF76FFD1D4E08220C213046FDF769FD6E
:10406000A014009002208DF804008DF805000020B7
:104070008DF8060001208DF8070069463046FDF7EF
:104080000BFD0420009069462846FDF705FD3B46E0
:10409000424649462046FFF703FC2046FFF76AFDEB
:1040A00080220B492046FFF765FC01228021204633
:1040B000FFF758FC012240212046FFF753FC03B0D4
:1040C000BDE8F08300500040000C024000080240B0
:1040D0002A3900200000000070B51D4A2DED028B2A
:1040E000506A002100B251621A4C4042D204606012
:1040F000536A51621BB2184A5D42A560536A51620D
:104100001BB25E42E660FCF785FB9FED158B53EC1E
:10411000182BFCF79EFAFCF7D9FB20612846FCF728
:1041200079FB53EC182BFCF794FAFCF7CFFB60619A
:104130003046FCF76FFB53EC182BFCF78AFAFCF7C0
:10414000C5FBA061BDEC028B70BD0000000000004B
:104150000008004040000020000400400000000073
:1041600075029A081BEE2740FEE700002DE9F0419A
:10417000234C804682B016460F462046FFF7D4FDFA
:1041800001210846FEF7A6FB01211020FEF7C6FB21
:104190001C4D072209212846FDF7CBFC07220A21E6
:1041A0002846FDF7C6FC4FF4C060009002208DF851
:1041B00004008DF8050000208DF8060001208DF820
:1041C000070069462846FDF767FC33463A464146F4
:1041D0002046FFF765FB2046FFF7CCFC80220A490A
:1041E0002046FFF7C7FB012280212046FFF7BAFBDC
:1041F000012240212046FFF7B5FB02B0BDE8F08167
:104200000010014000000240203400202DE9F04160
:10421000234C804682B016460F462046FFF784FDA9
:1042200001210220FEF756FB01218804FEF75EFB08
:104230001C4D07220A212846FDF77BFC07220B2193
:104240002846FDF776FC4FF44060009002208DF880
:1042500004008DF8050000208DF8060001208DF87F
:10426000070069462846FDF717FC33463A464146A3
:104270002046FFF715FB2046FFF77CFC80220A4909
:104280002046FFF777FB012280212046FFF76AFBDB
:10429000012240212046FFF765FB02B0BDE8F08116
:1042A00000480040000402402436002010B5602180
:1042B0001948DFF868C000DF60211948DFF85CC0EA
:1042C00000DF002201214FF4E130FFF74FFF002211
:1042D00003214FF4E130FFF799FF002205214FF44D
:1042E000E130FFF753FE002206214FF4E130FFF7E3
:1042F00095FE00230B4A0C490C48DFF834C000DF60
:104300000C4C00230C4A60600C490D48DFF820C0BB
:1043100000DFA06010BD0000202A0020DD5A000848
:10432000802A00202022002008000400E133000839
:104330000D61000824000020202600200900040050
:1043400021340008014A024900F020BF59530008F7
:104350002C01002003B401984100009850EAC120CC
:1043600018BF04204A0D18BF40F0010040F2FF7250
:10437000B2EB515F08BF40F00200012808BF0520E2
:1043800002B070470000000010B5B94A2DED020BD5
:104390002DED0C8B82B00F9921F000409FEDB6CB34
:1043A00090422CDBA0F140530E9AA3F17F631A4395
:1043B0000FD0B349884202DC16D10E98A0B19DED12
:1043C0000E0B02B0BDEC0C8B02B0BDE8104000F04B
:1043D00077BE0029C1BF9FEDAC0B02B0BDEC0C8BCA
:1043E00002B0C8BF10BD16E0012000F0A5FE02B06B
:1043F000BDEC0C8B02B0BDE8104000F06DBEA44ACD
:104400009FEDA59B9FEDA6AB90425EDAA6499FED7E
:10441000A8CB814208DBB0EE4C0AF0EE6C0A02B089
:10442000BDEC0C8B02B010BD9DED0E0B53EC102BB0
:1044300051EC100BFCF70DF941EC180B9E480621CE
:10444000B0EE480AF0EE680A784400F025FD53EC1F
:10445000182B51EC100BFCF7FCF841EC1B0B9748A8
:10446000B0EE480AF0EE680A0421784400F014FD2A
:1044700053EC182B51EC100BFCF7EBF853EC192B09
:10448000FCF740F841EC100B51EC1B0B53EC102BDC
:10449000FCF751F941EC100B53EC102B9DED0E0B7A
:1044A00051EC100BFCF7D5F853EC1A2BFCF7CEF8B7
:1044B0009DED0E1B53EC112BFCF7C8F853EC1C2B95
:1044C000FCF7C4F841EC100BA9E79FED7D8B9FED45
:1044D0007EBB9DED0E0B002953EC192B51EC100BFC
:1044E00052DAFCF70FF853EC182BFCF7B2F841EC5A
:1044F000180B77480621B0EE480AF0EE680A7844B7
:1045000000F0CAFC53EC182B51EC100BFCF7A1F88F
:1045100041EC1D0B6F48B0EE480AF0EE680A04212A
:10452000784400F0B9FC53EC182B51EC100BFCF75D
:1045300090F853EC192BFBF7E5FF41EC190B51EC0C
:10454000180B01F059FE41EC180B53EC192B51ECF0
:104550001D0BFCF7F0F853EC182BFCF77AF853EC32
:104560001A2BFCF770F841EC100B51EC180B53ECC4
:10457000102BFBF7C7FF53EC1B2BFCF76AF853EC2F
:104580001C2BFCF763F86DE0FCF760F853EC182B7C
:10459000FCF75FF841EC180B01F02EFE41EC1A0B12
:1045A00000208DED00AB00909DED000B51EC1A0B3F
:1045B00053EC102BFBF7A6FF9DED000B41EC1C0B01
:1045C00053EC102B51EC100BFCF743F853EC182B69
:1045D000FCF73CF853EC1C2BFCF7ADF841EC1C0B42
:1045E0003D48B0EE480AF0EE680A0621784400F033
:1045F00053FC53EC182B51EC100BFCF72AF841EC50
:104600001D0B3648B0EE480AF0EE680A04217844E3
:1046100000F042FC53EC182B51EC100BFCF719F88E
:1046200053EC192BFBF76EFF41EC100B51EC1D0BFB
:1046300053EC102BFCF77FF853EC1A2BFCF709F81E
:1046400053EC1C2BFBF75EFF41EC100B53EC102BD3
:104650009DED000B51EC100BFBF754FF53EC1B2BA3
:10466000FBF7F7FF41EC100BD9E60000000000005B
:104670000000F03F00000000182D4454FB210940C9
:104680000000F07F000000000000000000000000BB
:104690000000E03F00000000000000000000F03FCC
:1046A000075C143326A6913C0000603C000000002B
:1046B000182D4454FB21F93FCC1E0000DA1E0000E7
:1046C000000000000000E03F00000000000000408B
:1046D000161E0000241E0000281D0000361D0000CC
:1046E00010B52F499FED2C1B2DED020B84B00598C2
:1046F00020F000408842D8BF9DED040B2DDD2949F4
:10470000884209D1049840B94FF0010000F014FD2F
:1047100000F0E2FC06B010BD05DB9DED040B00F0DF
:10472000CFFC06B010BD68469DED040B00F0E0F82C
:1047300010F0030004BF9DED021B9DED000B0CD09B
:1047400001280ED09DED021B9DED000B022817D015
:10475000012000F01DFC06B010BD00F0E5FA06B027
:1047600010BD9DED021B9DED000B012000F010FC23
:1047700051EC100B81F0004106B041EC100B10BD64
:1047800000F0D2FA51EC100B81F0004106B041EC80
:10479000100B10BD00000000000000000000000031
:1047A000FB21E93F0000F07F10B52F499FED2C1B46
:1047B0002DED020B84B0059820F000408842DCBF4C
:1047C00000209DED040B32DD2849884209D1049870
:1047D00040B94FF0010000F0AFFC00F07DFC06B0E6
:1047E00010BD05DB9DED040B00F06AFC06B010BDAA
:1047F00068469DED040B00F07BF810F0030011D02B
:10480000012818D09DED021B9DED000B02281AD047
:1048100000F08AFA51EC100B81F0004106B041EC37
:10482000100B10BD9DED021B9DED000B012000F053
:10483000AFFB06B010BD9DED021B9DED000B00F01F
:1048400073FA06B010BD012000F0A2FB51EC100B72
:1048500081F0004106B041EC100B10BD00000000DB
:104860000000000000000000FB21E93F0000F07F95
:1048700000B52DED048BB0EE409AF0EE609A83B057
:1048800051EC190BFCF746F941EC180B18EE100A25
:1048900018EE901A8DED008B002818BF01200843F8
:1048A00020F00040C0F17F6000F1E040C00F14D064
:1048B00019EE101A19EE900A8DED009B002918BF11
:1048C0000121084320F00040C0F17F6000F1E0408A
:1048D000C00F04BF012000F02FFCB0EE480A03B067
:1048E000F0EE680ABDEC048B00BD00000000000083
:1048F0002DE9F14F04462DED020B2DED088B8AB00A
:104900009FEDE70B80ED020B139EE74826F0004574
:1049100085420ADC9DED120B002084ED000B0AB0ED
:10492000BDEC088B03B0BDE8F08FE0489FEDE0AB35
:104930009FEDE1BBA84247DDE14F9FEDE39B9FED7B
:10494000E48B9DED120B53EC1A2B51EC100B002E47
:104950001CDDFBF778FE41EC100BBD4208D053EC98
:104960001B2B51EC100BFBF76EFEC4E900010BE0B2
:1049700053EC192B51EC100BFBF765FE53EC182B85
:10498000FBF761FEC4E900010120C8E7FBF7BAFDAF
:1049900041EC100BBD4208D053EC1B2B51EC100B1B
:1049A000FBF7B0FDC4E900010BE053EC192B51EC0F
:1049B000100BFBF7A7FD53EC182BFBF7A3FDC4E985
:1049C00000014FF0FF30AAE7C348A84279DB9DED14
:1049D000120B51EC100B00F0B3FC41EC180B9FEDE7
:1049E000C00B53EC102BFBF734FE9FEDBF1B53ECB9
:1049F000112BFBF787FDFBF71EFF0746FBF70AFFAE
:104A000041EC190B53EC1A2BFBF723FE53EC182B3C
:104A1000FBF71CFE41EC180B53EC1B2B51EC190B54
:104A2000FBF717FEDFF8C8A241EC100B4FEA155850
:104A30000125FA4453EC102B51EC180BFBF703FE45
:104A4000032DC4E900013DD0C1F30A5005EB451127
:104A5000A8EB00001139814234DA0AEB051BB0EEF5
:104A600048AA9BED000BF0EE68AA53EC102B51EC1A
:104A7000190BFBF7EEFD41EC1B0B51EC1A0B53EC41
:104A80001B2BFBF7E0FD41EC180B51EC1A0B53EC20
:104A9000182BFBF7D8FD53EC1B2BFBF7D4FD9BED3C
:104AA000020B41EC1A0B53EC102B51EC190BFBF7DA
:104AB000D0FD53EC1A2BFBF7C6FD41EC100B6D1C1F
:104AC000B8E70EE0002EA8BF3846BFF628AF94ED39
:104AD000000B51EC100B81F00041C4E90001784259
:104AE0001DE7C6F3130040F4801EC6F30A50A0F27F
:104AF000F530471100F01F05C5F12000DDF848B082
:104B000008900020069007900520EC467949002D7A
:104B100007EB0002794408BF51F8221009D051F880
:104B2000223001EB8201AB404A68089922FA01F178
:104B30001943A1FB0E26A1FB0B131A449A4234BF62
:104B40000123002303EB06080CEB8003D3E901A645
:104B50000E448E4234BF0121002192448A4411B197
:104B6000924502D903E0924501D2012100E00021E3
:104B7000C3E901A641444CF82010011EA0F1010038
:104B8000C4DC029800F10050850F0298DDE903674C
:104B90008000DDF81480FBF73DFE41EC1A0B304637
:104BA000FCF7B8F99FED541B53EC112BFBF751FDAB
:104BB00041EC1B0B3846FCF7ADF99FED511B53EC54
:104BC000112BFBF746FD41EC180B4046FCF7A2F910
:104BD0009FED4D1B53EC112BFBF73BFD41EC190BEB
:104BE00051EC180B53EC192BFBF78CFC53EC1B2BE3
:104BF000FBF788FC53EC1A2BFBF784FCCDE908018A
:104C0000002008909DED080B53EC1A2B51EC100B73
:104C1000FBF719FD53EC1B2BFBF715FD53EC182B81
:104C2000FBF711FD53EC192BFBF710FD9FED381B23
:104C300053EC112BFBF70DFD9FED370B41EC180BDF
:104C400053EC102B9DED080B51EC100BFBF701FD05
:104C500053EC182BFBF756FC9FED310B41EC180B76
:104C600053EC102B9DED080B51EC100BFBF7F1FCF6
:104C700053EC182BFBF746FC41EC100B139810F08B
:104C8000004F06D06D4251EC100B81F0004141EC19
:104C9000100B284684ED000B41E6000000000000E8
:104CA0000000000000000000FB21E93F7CD9024029
:104CB00000004054FB21F93F3163621A61B4D03DDA
:104CC000FB21F93F000000000000601A61B4D03DF4
:104CD0007370032E8A19A33BFB21394100000000A9
:104CE00083C8C96D305FE43F000000000000E03F72
:104CF00062190000B0180000000000000000103E23
:104D0000000000000000103C000000000000103A0D
:104D1000182D4454FB21F93D3326A611460B113CB6
:104D200000000054FB21F93D10B52DED040B2DEDD5
:104D3000088B82B0B0EE419AF0EE619A0B9820F0A9
:104D400000449FED4BABB4F1795F11DA9DED0A0B96
:104D500051EC100BFBF76FFD002801BFB0EE4A0AC3
:104D6000F0EE6A0A02B0BDEC088B04BF04B010BDBF
:104D70009DED0A0B53EC102B51EC100BFBF769FC6B
:104D800041EC180B3C480621B0EE480AF0EE680AE8
:104D9000784400F081F853EC182B51EC100BFBF722
:104DA00058FC9DED0A0B41EC1B0B53EC192B51ECFD
:104DB000100BFBF74EFC41EC190B53EC1B2B51EC89
:104DC000180BFBF746FC53EC192BFBF73CFC9FED53
:104DD0002C0B41EC190B53EC102B51EC180BFBF77F
:104DE00038FC41EC100B2848844210DA53EC192BA4
:104DF00051EC100BFBF727FC53EC1A2BFBF726FCAE
:104E000041EC100B02B0BDEC088B04B010BD1F4884
:104E1000A042BCBF9FED1E1B8DED001B06DBA4F561
:104E200000100190002000909DED001B51EC100B34
:104E300053EC112BFBF707FC9DED000B41EC180B1D
:104E400053EC102B51EC1A0BFBF7FDFB41EC1A0B4A
:104E500053EC192B51EC180BFBF7F5FB53EC1A2B09
:104E6000FBF7F4FB41EC100BCCE700000000000066
:104E7000000000000000F03FD4150000000000001A
:104E8000000000000000E03F3333D33F0000E93F63
:104E9000000000000000D23F70B504462DED028BEB
:104EA0004D1E00EBC500B0EE408AF0EE608A90ED3A
:104EB000000B35F0060017D053EC182B51EC100BFB
:104EC000FBF7C7FB41EC100B6D1E04EBC50090ED2A
:104ED000001B51EC100B53EC112BFBF713FB41ECB7
:104EE000100B35F00600E7D1022D36D0042D1CD072
:104EF000062D1CBFBDEC028B70BD53EC182B51EC82
:104F0000100BFBF7A6FB94ED0A1B53EC112BFBF7E0
:104F1000F9FA53EC182BFBF79CFB94ED081B53ECB0
:104F2000112BFBF7EFFA41EC100B53EC182B51EC63
:104F3000100BFBF78EFB94ED061B53EC112BFBF7CC
:104F4000E1FA53EC182BFBF784FB94ED040B53ECC4
:104F5000102BFBF7D7FA41EC100B53EC182B51EC4C
:104F6000100BFBF776FB94ED021B53EC112BFBF7B8
:104F7000C9FA53EC182BFBF76CFB94ED001B53ECB8
:104F8000112BFBF7BFFABDEC028B41EC100B70BD8F
:104F900031B504462DED040B2DED0A8BB0EE41BA70
:104FA000F0EE61BA0B989DED0A0B20F00040B0F1D5
:104FB000795F0DDA51EC100BFFF7CCF9042808BF2C
:104FC00000F09AF89DED0A0BBDEC0A8B05B030BDE0
:104FD00053EC102B51EC100BFBF73BFB41EC180B87
:104FE0009DED0A0B53EC182B51EC100BFBF731FB2A
:104FF00041EC190B2C48B0EE480AF0EE680A052186
:105000007844FFF749FF9FED2ACBB0EE40AAF0EEBF
:1050100060AA9CB353EC1C2B51EC190BFBF719FB4A
:1050200041EC1C0B53EC1A2B51EC190BFBF711FB49
:105030009FED210B41EC190B53EC102B51EC1B0B8A
:10504000FBF707FB53EC192BFBF7FDFA53EC182B7E
:10505000FBF7FFFA53EC1B2BFBF7F5FA53EC1C2B79
:10506000FBF7F1FA9DED0A1B53EC112BFBF7EEFA5F
:10507000BDEC0A8B05B041EC100B30BDFFE753ECE3
:105080001A2B51EC180BFBF7E4FA53EC1C2BFBF733
:1050900039FA53EC192BFBF7DCFA9DED0A1B53ECA4
:1050A000112BFBF72FFAE3E75C140000000000006F
:1050B000495555555555C5BF000000000000E03F5B
:1050C00010B553EC102B51EC100BFBF71BFA41EC15
:1050D000100B10BD000000009FED050B10B553EC48
:1050E000102B51EC100BFBF726FB41EC100B10BD05
:1050F00000000000000000009FED050B10B553EC10
:10510000102B51EC100BFBF7A4FA41EC100B10BD67
:10511000000000000000001002E008C8121F08C1D3
:10512000002AFAD170477047002001E001C1121F28
:10513000002AFBD170470000014908607047000059
:105140003001002012F0004F1FBF22F00042D21D9C
:1051500022F00703102202BFD21C22F003030C220C
:105160001BB103EB020C8C4501D9012070470244AE
:1051700001448360C0E90021C91AD01888429CBF4D
:1051800010600246F9D90020106070472DE9F04107
:1051900016460F460446002503E03946B047641C16
:1051A0006D1C20780028F8D12846BDE8F081000069
:1051B0004FF47A71484308494B68084ADFF820C029
:1051C0001268B2FBFCF2504308BF70474A68D21A1B
:1051D0009042FBD870470000001000E0EC00002077
:1051E00040420F0007494A68074BDFF820C01B68A0
:1051F000B3FBFCF3584308BF70474B689B1A9842B7
:10520000FBD87047001000E0EC00002040420F0087
:1052100010B54FF44070FCF7F7FDFDF701FC00F00E
:1052200011F8FDF7E3FCFDF7C9FDFDF751FD00F0B6
:105230001BF841F288314800FCF776F8BDE81040D1
:1052400001F012B80648016841F08071016005481C
:1052500000214160016841F00101016070470000D8
:10526000FCED00E0001000E010B5012182B008461E
:10527000FDF730FB214C052211462046FCF759FC76
:10528000052206212046FCF754FC05220721204672
:10529000FCF74FFC02208DF8040001208DF805007A
:1052A00000218DF80610E0208DF807100090694667
:1052B0002046FCF7F1FB01210803FDF72FFB104C02
:1052C000208800F4415040F44B702080208820F06A
:1052D00040002080208840F040002080A08B20F4F7
:1052E0000060A0830720208200212046FDF784FB78
:1052F00001212046FDF780FB02B010BD00000240F6
:105300000030014010EE102ADFF824C0094B62453E
:1053100008D810EE102A9A4207DC00BF4FF49662BC
:10532000FBF7FABE9FED040AF8E79FED040AF5E7E4
:105330000000B4C20000B4420000B4C20000B44295
:1053400082B0CDE9000121F0004001909DED000BFD
:1053500002B051EC100B704770B505460648E9B233
:105360000446FEF703FE80212046FEF75DFD00287F
:10537000F9D0284670BD00000010014030B587B05C
:10538000002400940120164D8DF804408DF814007F
:105390008DF805400294049469462846FBF736FED2
:1053A00032212846FBF706FE01231A4621462846ED
:1053B000FBF756FE2846FBF79CFE02212846FBF72A
:1053C0001EFE0028F9D02846FBF716FE00EE100A54
:1053D000DFED040A07B0B8EE400A20EE200A30BD27
:1053E000002001403333533A10B500F09BFCBDE878
:1053F000104000F087BC0000FFF70AFF4FF4FA608E
:10540000FFF7D6FEFCF7E2FFFDF76EF800F01EF89E
:105410006420FFF7CDFEFCF74DFCFCF7D5FB0648FA
:10542000FDF794FAFAF7D2FE044A05490548DFF879
:1054300018C000DFFEE70000380700203805002014
:105440000A00020091110008D55E0008F0B583B093
:1054500001210520FDF73EFA01218803FDF75EFAE0
:1054600001258DF8045000248DF806408DF8055074
:1054700010268DF8074069460D480096FCF70CFB96
:105480000C4F694638460096FCF706FB8DF8044041
:1054900020208DF8064000908DF807506946384668
:1054A000FCF7FAFAFFF7E0FE0348068003B0F0BD10
:1054B0000000024000080240180802402DE9F05F99
:1054C000DFF808A14FF0100906460724AAF81A9041
:1054D0003F4DA5F80090DFF8FC8002214046FDF723
:1054E00094FA0028F9D021464046FDF797FA0121A9
:1054F0004046FDF78AFA0028F9D04046FDF78CFABD
:10550000FF2402214046FDF780FA0028F9D0214609
:105510004046FDF783FA01214046FDF776FA002860
:10552000F9D04046FDF778FADFF8ACB0C4B2ABF87A
:10553000009021462720FCF7F3FB14F0400F04BF36
:105540000120BDE8F09FAAF81A9061242027A5F851
:10555000009002214046FDF758FA0028F9D0214674
:1055600045464046FDF75AFA01212846FDF74DFA17
:105570000028F9D02846FDF74FFA00244FF0FF0825
:1055800002212846FDF741FA0028F9D04146284675
:10559000FDF744FA01212846FDF737FA0028F9D033
:1055A0002846FDF739FA3055601CC4B2BC42E5D339
:1055B000ABF80090FF21E220FCF7B2FBAAF81890AC
:1055C0009620FFF70FFE0020BDE8F09F000002408C
:1055D0001A08024000300140180802402DE9F04747
:1055E0000D4620494FF010091746A1F800901E4EB5
:1055F000044602213046FDF708FA0028F9D021467A
:105600003046FDF70BFA01213046FDF7FEF9002880
:10561000F9D03046FDF700FA002400F0FF08002F13
:1056200019D900BF15F801AB02213046FDF7EDF99D
:105630000028F9D051463046FDF7F0F901213046F7
:10564000FDF7E3F90028F9D03046FDF7E5F9601CD5
:10565000C4B2BC42E6D30548A0F800904046BDE87D
:10566000F08700001A08024000300140180802408C
:10567000FEE700000548012181F310880168491CFC
:105680000160002181F31088F5E700001000002080
:10569000074801684FF0E020416100218161072146
:1056A00001610448016841F07F4101604017704783
:1056B000F862000820ED00E070477047F0B491F800
:1056C00003C000224B1E1CF0010F18BF13F8012F5E
:1056D00000240CF104065FEA560C0BD05F78ACF1A5
:1056E000010C3A4413F8027FD2B23C44E4B21CF0FD
:1056F000FF0CF3D1F3B22244CB5CD2B2934228D157
:105700008A8852BA62F30F05CA88098952BA12B25E
:1057100062F31F45ABB200EE103A49BA09B2F8EE97
:10572000400A9FED0E0A80EE801A00EE902AF8EEF5
:10573000E00A80ED021A80EE801A00EE901AF8EE70
:10574000E00A80ED001A80EE801A80ED011AF0BCAC
:105750007047F0BC02A0FEF7F5BD00000000C84293
:10576000436861737369735F6572720D0A000000AC
:10577000F0B491F803C000224B1E1CF0010F18BFBB
:1057800013F8012F00240CF104065FEA560C0BD02D
:105790005F78ACF1010C3A4413F8027FD2B23C447A
:1057A000E4B21CF0FF0CF3D1F3B22244CB5CD2B2D2
:1057B000934228D18A8852BA62F30F05CA880989B0
:1057C00052BA12B262F31F45ABB200EE103A49BAB8
:1057D00009B2F8EE400A9FED0E0A80EE801A00EE44
:1057E000902AF8EEE00A80ED021A80EE801A00EEB0
:1057F000901AF8EEE00A80ED001A80EE801A80ED33
:10580000011AF0BC7047F0BC02A0FEF79BBD00007F
:105810000000C84250545A5F6572720D0A000000C1
:1058200050E8001F31B10B6840E80032002AF7D180
:1058300008467047BFF32F8FFAE70000002808BF23
:10584000704770B50D464FF6FF71084C884204D280
:1058500022680146104600F093FA2068457004481B
:1058600000F0D1F802216060417070BD1801002085
:105870002C3A0020704700002D4BD868002808BF44
:1058800070472DE9F001988A0025401EDFF8A480BA
:1058900098820126988A00281CBFBDE8F001704755
:1058A000D968002904BFBDE8F0017047886838B1A5
:1058B0004A684260486810B18A6882604D608D60B5
:1058C000DFF874C000279CF8000002281ABF0128E6
:1058D0000328012791F80240DCF8040020B1827807
:1058E000A24228BF8446F7D24860CCF80410002FAB
:1058F00004BF08468D6005D000281CBF0A468160A1
:10590000C1F808C0888A98824878042804D1C88AD7
:10591000B8F80020104488824E7081F82560C8686D
:10592000D860C86800281CBF0361CD600D61B1E775
:10593000443A0020200100202C3A00202DE9F041BB
:10594000104E04004FF002050DD03068A1780127F9
:10595000827891420ED900F069FA3068477074601D
:105960006570BDE8F081084800F04DF87060457042
:10597000BDE8F08167702146BDE8F041024800F0C3
:1059800033BA0000180100202C3A00200321FFF751
:1059900055BF000010B50446008B08432083627891
:1059A000618B062A18D0052A18BF10BD084208BF0F
:1059B00010BD01EA0002628388432083204600F084
:1059C0003FFA01206070022084F825002146BDE8DE
:1059D0001040034800F008BA31EA0002ECD010BDD4
:1059E0002C3A0020814224BF42688A429CBF012099
:1059F000704700BF50E8002F0A6040E80012002AFC
:105A0000F8D1002070470146406842684A600B7830
:105A10000022022B18BF012B03D0032B1CBF4260B6
:105A200070474368002B1CBF9960426082607047DA
:105A300070470000028D920803D1134A1288C2F306
:105A40008D02036B03EB820212F0040F18BF121FCA
:105A50004FF0807342E90213002342F8403D536047
:105A60009360D360136153619361D3611362536296
:105A70009362D36213635363C3691362C262416367
:105A8000006B024901607047F4620008A52E5AE2DB
:105A90000349044A0968C882128810448882704702
:105AA00018010020200100200848016808488A8A5F
:105AB0000088CB8A101A80B21A448A8210F4004FF0
:105AC00018BF70470421FFF7B9BE0000180100207D
:105AD00020010020C1898089081A704701220270C4
